:100000000EC02FC06DC12DC02CC02BC02AC029C06E
:1000100028C027C026C025C062C123C022C0112429
:100020001FBECFEDCDBF14BE0FB6F894A89581B515
:10003000886181BD11BC0FBE10E0A0E6B0E0EEEF1C
:10004000F2E002C005900D92AE36B107D9F720E07C
:10005000AEE6B0E001C01D92A137B207E1F739D09A
:100060004CC1CECF80917000982F9295907F9827A9
:1000700080916F008093700080916E0080936F007C
:100080002091600020936E00822F86958227282F72
:100090002927892F880F822780936000089580B5D3
:1000A0008E7F80BD379A8DE58A95F1F7369A36991D
:1000B000FECF85B1379890B5916090BD089598B303
:1000C000987EE82FF0E0EA59FF4F8081982B98BB8B
:1000D000089580E891E00FB6F89486BD96BD0FBEF6
:1000E0009CE297B997E096B988B980B58F6080BDDA
:1000F00085B7877E806185BFC39A87B3876187BBD9
:10010000C0E002C0AFDFCF5FCADFC817D8F3AB9A39
:100110008BB780628BBF88E198E00FB6F894A89502
:1001200081BD0FBE91BD81B5886481BD7894D12C0D
:10013000B12C712C00E0C12C912CD1E010E0F12CFD
:10014000C0E06894882481F8A12CEE24E3940F2E5B
:10015000FCE04F2EF02D0F2EF3E06F2EF02D0F2E22
:10016000F6E05F2EF02D86C0013061F08C2F8719EC
:10017000833008F491C00A2D8FC00E2DCC24C39477
:100180001E2D8AC07C2E082D87C089DFDA2D8B3783
:1001900008F488C08C2F8F19D82D823008F48AC0BB
:1001A000DE2DD110DA2DDD2031F08E2D88DFDD2E11
:1001B000FC2ED82D7FC08A2D82DFB39485E08B156D
:1001C00008F04BC0BD2CFC2ED62D74C0EC2DF0E0F9
:1001D000EF59FF4F90818C2F8F19891708F46AC04F
:1001E000C39484E08C1550F0939486E0891510F444
:1001F00099249394892D63DFFC2E5CC033DF652D39
:1002000070D099249394990E892D59DFFC2E182DC6
:1002100051C0DD2069F08C2F8F198D1508F44AC06C
:100220008CE0D81205C08A2D4ADFFC2ED62C42C0A5
:10023000892D45DFB39483E0FC2ED42C8B1508F078
:1002400039C0DA2CB12C162D35C08C2F8F198D3773
:1002500088F18A2D34DF1A2D2DC0DD2EFC2ED82DED
:1002600029C085B7806285BF7894889585B78F7DD2
:1002700085BF789401B406FC04C081B5886481BD53
:10028000CF5FB39971CF011178CFFC2EDA2CB12C4E
:100290000E2DCC24C3941E2DD13009F476CFD2304C
:1002A00009F478CF113009F491CF123009F4B1CFAD
:1002B000133059F2F89401B406FEDBCFB39BD1CFD3
:1002C000812F802B71F6D23061F20FB6F894A89589
:1002D00081B5886181BD11BC0FBEDE2DC2CF1895DE
:1002E0001895991B79E004C0991F961708F0961B82
:0E02F000881F7A95C9F780950895F894FFCF7E
:0E02FE00560003060C19001002120616070027
:00000001FF
